:020000040000FA
:100000000C9472000C949A000C949A000C949A0030
:100010000C949A000C949A000C949A000C949A00F8
:100020000C949A000C949A000C949A000C949609E3
:100030000C949A000C949A000C949A000C949A00D8
:100040000C94F4080C949A000C9464090C943E09E6
:100050000C949A000C949A000C949A000C949A00B8
:100060000C949A000C949A00005EBCE2613FDD8320
:10007000C29C7E20A3FD1F41009D23BE46DB65F888
:100080008C11AF32CA57E974000000002400270029
:100090002A0000000000250028002B0000000008B6
:1000A000000201000003040700000000000000003F
:1000B00000000000230026002900040404040404B6
:1000C0000404020202020202030303030303010207
:1000D00004081020408001020408102001020408D6
:1000E0001020520A11241FBECFEFD8E0DEBFCDBFD3
:1000F00011E0A0E0B1E0E6E7F4E202C005900D9265
:10010000AA39B107D9F722E0AAE9B1E001C01D92EE
:10011000A93BB207E1F710E0C2E7D0E004C02197A5
:10012000FE010E943312C137D107C9F70E94430B69
:100130000C9439120C940000E4EAF1E0A089B18932
:1001400082E08C93A485B5851C92A685B7858FEC3B
:100150008C93108EA489B58986E08C93A289B3898B
:100160008C9180618C93A289B3898C9188608C93E7
:10017000A289B3898C9180688C930288F389E02DE1
:1001800080818F7D808308958F929F92AF92BF92DE
:10019000FF920F931F93CF93DF93F09066022BE0B3
:1001A0002F1508F44CC02091680208E512E0021BEC
:1001B000110927FD1395000F111F000F111F20912A
:1001C0006702C8E8D0E0C21BD10927FDD395CC0F48
:1001D000DD1FCC0FDD1F4E010D2E000CAA08BB0841
:1001E0009801012E000C440B550B281939094A09B6
:1001F0005B09DC010E948A0F24EB30E040E050E014
:100200000E94600F820E931EA41EB51E8C169D06C2
:100210002CF0E801801691060CF4E4012297CC0F33
:10022000DD1F2FB7F8948F2D90E0FC01EE0FFF1F1C
:10023000E80FF91FEF5BFD4FD283C1832FBFDF9122
:10024000CF911F910F91FF90BF90AF909F908F9093
:100250000895CF92DF92EF92FF92CF93DF93B09108
:100260007002A0E08111AB2F8091710290E0880FA5
:10027000991FAC0140555F4FC0907602D090770235
:10028000E0907802F090790230E020E0FA01C59128
:10029000D491E881B90190E080E0EB23EA130AC031
:1002A0002F5F3F4F6C157D058E059F0578F36FEF2F
:1002B0007FEFCB01DF91CF91FF90EF90DF90CF9058
:1002C0000895833081F028F4813099F08230A9F0CC
:1002D00008958730A9F08830C9F08430B1F4809156
:1002E00080008F7D03C0809180008F778093800095
:1002F000089584B58F7784BD089584B58F7DFBCF35
:100300008091B0008F778093B00008958091B00005
:100310008F7DF9CF1F93CF93DF93282F30E0F90122
:10032000E456FF4F8491F901E253FF4FD491F90154
:10033000E654FF4FC491CC23A9F0162F81110E94DF
:100340006101EC2FF0E0EE0FFF1FEE56FF4FA5917D
:10035000B4918FB7F894EC91111108C0D095DE23B9
:10036000DC938FBFDF91CF911F910895DE2BF8CFE3
:10037000CF93DF9390E0FC01E253FF4F249186542A
:100380009F4FFC0184918823C9F090E0880F991F4A
:10039000FC01E857FF4FA591B491FC01EE56FF4FC9
:1003A000C591D49161110DC09FB7F8948C9120959F
:1003B00082238C938881282328839FBFDF91CF914C
:1003C0000895623051F49FB7F8943C91822F809544
:1003D00083238C93E8812E2BEFCF8FB7F894EC9189
:1003E0002E2B2C938FBFEACF3FB7F89480919C01BE
:1003F00090919D01A0919E01B0919F0126B5A89B6F
:1004000005C02F3F19F00196A11DB11D3FBFBA2FA6
:10041000A92F982F8827BC01CD01620F711D811D66
:10042000911D42E0660F771F881F991F4A95D1F7EB
:1004300008958F929F92AF92BF92CF92DF92EF92E8
:10044000FF926B017C010E94F4014B015C01C1141D
:10045000D104E104F104B9F00E94F40168197909AA
:100460008A099B09683E73408105910580F321E06C
:10047000C21AD108E108F10888EE880E83E0981EC0
:10048000A11CB11CE4CFFF90EF90DF90CF90BF9004
:10049000AF909F908F900895CF92DF92EF92FF924E
:1004A0000F931F93CF93DF93CDB7DEB7C054D140E6
:1004B0000FB6F894DEBF0FBECDBF2FB7F894809172
:1004C000A0019091A101A091A201B091A3012FBF21
:1004D00040917202509173026091740270917502A2
:1004E0008C019D01041B150B260B370BB901A801CC
:1004F000403D57406105710590F480917A02C05CDF
:10050000DE4F0FB6F894DEBF0FBECDBFDF91CF91A7
:100510001F910F91FF90EF90DF90CF9008958093FF
:10052000720290937302A0937402B09375021092BA
:100530006D0210926C0210926B0210926A0210927D
:10054000690262E080916E020E94B80161E070E091
:1005500080E090E00E94190261E080916E020E94AA
:10056000B80160E080916E020E948A0180916F0262
:100570008551823020F58BE291E10197F1F762E03D
:1005800080916E020E94B80180917B0290E08230DF
:10059000910538F0880F991F880F991F05970197CB
:1005A000F1F7F89480E00E9429016F3F7F4F8F4F51
:1005B0009F4F61F410927A02789480E0A0CF64E1BA
:1005C00070E080E090E00E941902D9CF81E00E94A3
:1005D00029016F3F7F4F8F4F9F4F61F38E010F5F58
:1005E0001F4F6E018FEBC81A8EEFD80A780180E09A
:1005F0000E942901F701608371838283938381E0E4
:100600000E942901F7016483758386839783F8E04C
:10061000EF0EF11CEC14FD0451F7789430E020E06B
:10062000F801C080D180E280F380448155816681E9
:100630007781FFEFCF16DF06EF06FF0631F04F3F61
:100640008FEF58076807780719F410927A02B5CF30
:10065000F90183E0F595E7958A95E1F7E759FD4FB4
:100660008081880FC416D506E606F70610F1808350
:100670002F5F3F4F085F1F4F2832310589F64091A9
:100680006D022091690280916A02280F3327331F7F
:1006900080916B02280F311D80916C02820F932F85
:1006A000911D99274817190681F681E080937A02F7
:1006B00026CF8160DCCFAF92BF92CF92DF92EF92D4
:1006C000FF920F931F93CF93DF936C017B018B01FC
:1006D000040F151FEB015E01AE18BF08C017D1074C
:1006E00059F06991D601ED91FC910190F081E02DD6
:1006F000C6010995892B79F7C501DF91CF911F912B
:100700000F91FF90EF90DF90CF90BF90AF90089542
:10071000FC01538D448D252F30E0842F90E0821B07
:10072000930B541710F0CF96089501970895FC018C
:10073000918D828D981761F0A28DAE0FBF2FB11DE4
:100740005D968C91928D9F5F9F73928F90E008953C
:100750008FEF9FEF0895FC01918D828D981731F0F6
:10076000828DE80FF11D858D90E008958FEF9FEF4A
:100770000895FC01918D228D892F90E0805C9F4F20
:10078000821B91098F739927089584EA91E00E9452
:10079000B90321E0892B09F420E0822F089580E03D
:1007A00090E0892B29F00E94C50381110C94000070
:1007B0000895FC01A48DA80FB92FB11DA35ABF4FF6
:1007C0002C91848D90E001968F739927848FA68950
:1007D000B7892C93A089B1898C91837080648C93A4
:1007E000938D848D981306C00288F389E02D808153
:1007F0008F7D80830895EF92FF920F931F93CF9385
:10080000DF93EC0181E0888F9B8D8C8D98131AC04B
:10081000E889F989808185FF15C09FB7F894EE8932
:10082000FF896083E889F98980818370806480838F
:100830009FBF81E090E0DF91CF911F910F91FF90DA
:10084000EF900895F62E0B8D10E00F5F1F4F0F7382
:100850001127E02E8C8D8E110CC00FB607FCFACF3D
:10086000E889F989808185FFF5CFCE010E94D903FF
:10087000F1CFEB8DEC0FFD2FF11DE35AFF4FF0820E
:100880009FB7F8940B8FEA89FB8980818062CFCF74
:10089000CF93DF93EC01888D8823B9F0AA89BB89B7
:1008A000E889F9898C9185FD03C0808186FD0DC0A2
:1008B0000FB607FCF7CF8C9185FFF2CF808185FFC3
:1008C000EDCFCE010E94D903E9CFDF91CF910895FA
:1008D000089590E080E00895DC0180E0615090F0A0
:1008E0009D919827E92FEF70F0E0E859FF4F249190
:1008F000E92FE295EF70F0E0E858FF4FE491822F86
:100900008E27ECCF0895DC012C911196ED91FC918E
:10091000F8948181822B81839281322F30959323A9
:10092000928387E090E00197F1F7818183238183AF
:1009300083E290E00197F1F790817894EFECF0E09A
:100940003197F1F7922381E009F480E00895FC01EA
:1009500090810180F281E02D292F209560FF14C045
:10096000F8948281822382838181892B8183A3E20F
:10097000B0E01197F1F78281982B9283789487EDFC
:1009800090E00197F1F70895F894828182238283A1
:100990008181892B8183AFEFB0E01197F1F78281DC
:1009A000982B928378948FE090E0EBCFDF92EF92D8
:1009B000FF920F931F93CF93DF93EC01D62EE42E7B
:1009C00008E010E0FF24F39461E08D2D8F2109F4FD
:1009D00060E0CE010E94A704FF0C01501109A1F7AD
:1009E000E11010C0F894E981FA81918188818095A5
:1009F00089238183E981FA81928188818095892385
:100A000082837894DF91CF911F910F91FF90EF90A7
:100A1000DF900895EF92FF920F931F93CF93DF9390
:100A20008C017B0140E065E50E94D604E70188E087
:100A3000E80EF11C699140E0C8010E94D604CE1571
:100A4000DF05C1F7DF91CF911F910F91FF90EF90DC
:100A50000895FC0190810180F281E02DF89481815C
:100A6000292F20958223818378943DE743E050E04D
:100A7000315029F1DA011197F1F780818923C1F30F
:100A8000F8948281822382838181892B8183789467
:100A9000ABE7B7E01197F1F7F89481818223818366
:100AA000A3E1B1E01197F1F78081982381E009F08B
:100AB00080E07894E3E6F6E03197F1F7089580E07E
:100AC00008956F927F928F929F92AF92BF92CF9232
:100AD000DF92EF92FF920F931F93CF93DF938C01DE
:100AE000EB0180918502909186020E94290588235E
:100AF00009F43FC0B80180918502909186020E945E
:100B00000A0540E06EEB80918502909186020E947A
:100B1000D6047E016E0189E0C80ED11C8E01A09022
:100B20008502B090860288E0882E912C712C662474
:100B30006394C5010E94830481117628660CE1E06C
:100B40008E1A9108B1F7F80171928F01CE16DF0667
:100B500031F780918502909186020E9429058130AB
:100B600041F4F70181917F01811105C0E017F10780
:100B7000C1F790E008C068E0CE010E946C0491E0EB
:100B800028852813F6CF892FDF91CF911F910F91E0
:100B9000FF90EF90DF90CF90BF90AF909F908F909D
:100BA0007F906F900895BF92CF92DF92EF92FF9265
:100BB0000F931F93CF93DF93EC01B62EC72E8D8535
:100BC000811105C0CE010E94290581110EC01B862E
:100BD0001D861C8680E0DF91CF911F910F91FF90C1
:100BE000EF90DF90CF90BF90089540E060EFCE018E
:100BF0000E94D60401E0E12CD12C11E0CE010E942C
:100C00008304F82ECE010E94830491E0F91218C0EB
:100C1000813099F51134D8F2DB86D11002C081E021
:100C20008D878B81882399F22396EB2DFC2DCF01A4
:100C3000089629912193E817F907D9F781E0CBCFDE
:100C4000EE2DF0E0F8120FC08B851817A0F4DE012E
:100C5000AE0FBF1F13968C91802379F4F12C1930BD
:100C600008F41C87D12EEC0FFD1F8381902F9095E7
:100C7000892383830AC08113F1CFFE01EE0DF11D9C
:100C80008381802B8383FF24F3946F2DCE010E94F8
:100C9000A7041F5F000F11F4E39401E087E08E15B5
:100CA00008F0ACCFB7CFCF93DF93EC0160E08E813B
:100CB0000E948A0161E08E810E948A0160E08E813B
:100CC0000E948A018BE891E00197F1F7DF91CF91C3
:100CD0000895CF92DF92EF92FF920F931F93CF93DD
:100CE000DF936C017C0187E0E80EF11CD0E0C0E0EE
:100CF000062F10E0B8010C2E02C0759567950A9476
:100D0000E2F76170F70181917F010E948A012196CB
:100D1000C430D10579F7C601DF91CF911F910F91B2
:100D2000FF90EF90DF90CF900C945306CF92DF921C
:100D3000EF92FF920F931F93CF93DF93EC01F62E68
:100D4000642F8C810E948A018D818F3F19F060E0B1
:100D50000E948A010F2D10E08F8584FF25C06E014F
:100D600087E0C80ED11CF12CE12CB8010E2C02C07A
:100D7000759567950A94E2F76170F60181916F01AC
:100D80000E948A01FFEFEF1AFF0A88E0E816F104DB
:100D900061F7CE01DF91CF911F910F91FF90EF90FE
:100DA000DF90CF900C945306B80184E07595679559
:100DB0008A95E1F7CE010E9469066F2DCE01DF9181
:100DC000CF911F910F91FF90EF90DF90CF900C94F7
:100DD000690640E0682F81EA92E00C949606CF9372
:100DE000DF93823029F49091B00298609093B00222
:100DF0008093B4021092B50280E48093B60280E141
:100E00008093B70280E58093B80261E08091A502EB
:100E10000E94B8018091A6028F3F19F061E00E9404
:100E2000B80161E08091A7020E94B801C1EAD2E056
:100E30009E01215A32408091B00284FD0BC084E0B3
:100E400090E021962817390744F461E08E810E94D2
:100E5000B801EECF88E090E0F4CF8BE39DE00197FE
:100E6000F1F760E08091A5020E948A0160E0809124
:100E7000A7020E948A018091A6028F3F19F060E0CC
:100E80000E948A018091B00284FD39C063E081EA4A
:100E900092E00E946906CBE4D6E4CE010197F1F717
:100EA00063E081EA92E00E9469062197F1F763E02E
:100EB00081EA92E00E94690683E592E00197F1F7EA
:100EC00062E081EA92E00E9469068091B00280624D
:100ED0000E94E90684E08093B1028CE00E94E9065A
:100EE00081E00E94E9068BE39FE10197F1F782E040
:100EF0008093B20286E0DF91CF910C94E906806284
:100F00000E94E9068BE496E40197F1F78091B00224
:100F100080620E94E90683E592E00197F1F78091F3
:100F2000B00280620E94E906D0CF9091B402891786
:100F300010F08FEF890FE82FF0E0EF55FD4F848917
:100F400080680C94E90641E00E94960681E090E0FA
:100F50000895FB0101900020E9F73197AF01461B8E
:100F6000570BDC01ED91FC910280F381E02D099497
:100F70008F929F92AF92BF92EF92FF920F931F9327
:100F8000CF93DF93CDB7DEB7A1970FB6F894DEBF4E
:100F90000FBECDBF7C01FA01CB0119A2223008F4AB
:100FA0002AE08E010F5D1F4F822E912CB12CA12CB7
:100FB000BF01A50194010E94920FF901CA016A3094
:100FC0000CF5605DD8016E938D01232B242B252B0E
:100FD00079F790E080E0109721F0BD01C7010E94F1
:100FE000A907A1960FB6F894DEBF0FBECDBFDF9163
:100FF000CF911F910F91FF90EF90BF90AF909F9076
:101000008F900895695CDECF2F923F924F925F924E
:101010006F927F928F929F92AF92BF92CF92DF9208
:10102000EF92FF921F93CF93DF93EC016A017B0154
:10103000722EAB019601CB01B6010E94FA1164E257
:1010400071E0811126C046015701E894B7F82FEFEF
:101050003FEF4FE75FE7C501B4010E94FA1181112C
:101060000CC02FEF3FEF4FE75FE7C501B4010E94CF
:10107000301068E271E0181664F02FEF3FEF4FE791
:101080005FE4C701B6010E9488111816B4F46CE23F
:1010900071E0CE01DF91CF911F91FF90EF90DF9033
:1010A000CF90BF90AF909F908F907F906F905F9008
:1010B0004F903F902F900C94A9072FEF3FEF4FE7F1
:1010C0005FECC701B6010E94301087FDE0CF20E041
:1010D00030E0A901C701B6010E943010312C212C4B
:1010E00087FF0DC0E881F9810190F081E02D6DE26C
:1010F000CE0109951C01F7FAF094F7F8F09410E08E
:1011000060E070E080E09FE3711641F020E030E0A5
:1011100040E251E40E9435101F5FF6CFA70196010F
:101120000E94C40F2B013C010E94A7104B015C01DF
:101130002AE0BC01A401CE010E94B8077C01E20CA8
:10114000F31C1123E1F1C501B4010E94D6109B01EB
:10115000AC01C301B2010E94C30F4B015C01E881E5
:10116000F9810190F081E02D6EE2CE010995E80E43
:10117000F91E115020F120E030E040E251E4C501B9
:10118000B4010E948D112B013C010E94A7104B015C
:10119000B12CA12C2AE0B501A401CE010E94B80710
:1011A000E80EF91EC501B4010E94D6109B01AC01E6
:1011B000C301B2010E94C30F4B015C01DACFC7012A
:1011C000DF91CF911F91FF90EF90DF90CF90BF9074
:1011D000AF909F908F907F906F905F904F903F90D7
:1011E0002F9008950C94A9071F920F920FB60F929B
:1011F00011242F933F938F939F93AF93BF9380912D
:10120000A0019091A101A091A201B091A301309100
:101210009B0123E0230F2D3758F50196A11DB11D29
:1012200020939B018093A0019093A101A093A20120
:10123000B093A30180919C0190919D01A0919E018A
:10124000B0919F010196A11DB11D80939C019093C7
:101250009D01A0939E01B0939F01BF91AF919F917B
:101260008F913F912F910F900FBE0F901F90189567
:1012700026E8230F0296A11DB11DD2CF1F920F9217
:101280000FB60F9211242F933F934F935F936F9359
:101290007F938F939F93AF93BF93EF93FF9384EAD2
:1012A00091E00E94D903FF91EF91BF91AF919F917F
:1012B0008F917F916F915F914F913F912F910F90FF
:1012C0000FBE0F901F9018951F920F920FB60F929E
:1012D00011242F938F939F93EF93FF93E091B40189
:1012E000F091B5018081E091BA01F091BB0182FDDE
:1012F0001BC090818091BD018F5F8F732091BE01D3
:10130000821741F0E091BD01F0E0EC55FE4F958F62
:101310008093BD01FF91EF919F918F912F910F903D
:101320000FBE0F901F9018958081F4CF1F920F92DF
:101330000FB60F9211242F933F934F935F936F93A8
:101340007F938F939F93AF93BF93CF93DF93EF934D
:10135000FF9380919A01C0916502D0E087FF24C07D
:10136000109285001092840080919A018F5F809383
:101370009A0180919A01082E000C990B8C179D07F9
:1013800024F480919A018C30C4F180918400909172
:101390008500049680349C4908F47AC080918400CA
:1013A00090918500049676C080919A01082E000CD9
:1013B000990B8C179D07C4F6E0919A018E2FEE0FC2
:1013C000990BFC01EE0FFF1FE80FF91FEF5BFD4FBC
:1013D000808186FFC9CFE0919A018E2FEE0F990B85
:1013E000FC01EE0FFF1FE80FF91FEF5BFD4F80813F
:1013F00060E08F730E948A01B7CF20918400309102
:101400008500E0919A018E2FEE0F990BFC01EE0FF3
:10141000FF1FE80FF91FEF5BFD4F81819281820F63
:10142000931F9093890080938800E0919A018E2FFA
:10143000EE0F990BFC01EE0FFF1FE80FF91FEF5B9A
:10144000FD4F808186FF11C0E0919A018E2FEE0F33
:10145000990BFC01EE0FFF1FE80FF91FEF5BFD4F2B
:10146000808161E08F730E948A01FF91EF91DF918B
:10147000CF91BF91AF919F918F917F916F915F912C
:101480004F913F912F910F900FBE0F901F90189585
:1014900080E49CE990938900809388008FEF80938B
:1014A0009A01E3CF1F93CF93DF931092A70110927D
:1014B000A60188EE93E0A0E0B0E08093A8019093AD
:1014C000A901A093AA01B093AB018AE091E09093A7
:1014D000A5018093A40185EC90E09093B1018093E5
:1014E000B00184EC90E09093B3018093B20180EC62
:1014F00090E09093B5018093B40181EC90E09093DB
:10150000B7018093B60182EC90E09093B90180938B
:10151000B80186EC90E09093BB018093BA011092E1
:10152000BD011092BE011092BF011092C001109235
:10153000A4021092A3028CE191E09093A202809306
:10154000A1028CE08093A502CFEFC093A602DBE05E
:10155000D093A7028AE08093A80219E01093A90211
:1015600088E08093AA0287E08093AB021092AC02DD
:101570001092AD021092AE021092AF021092B00221
:1015800081E00E94EF0660E086E00E94B801E4ED91
:10159000F0E0E491E0939302E0ECF0E0E491F0E01D
:1015A000EE0FFF1FE055FF4F8591949190939502A8
:1015B0008093940210929E021092A00210929F02B9
:1015C00010929D0210929C0210929B0210929A021D
:1015D000109299021092980210929702109296021D
:1015E000109292021092910210927D0283E992E091
:1015F0009093860280938502109283021092840257
:1016000010927C0210937F0281E08093800280938D
:1016100081028093820282E080936E02D0936F02F7
:10162000E0EDF0E0E491E0937002ECEBF0E0E491A7
:10163000E093710280E89EE3A0E0B0E08093760240
:1016400090937702A0937802B0937902809165021B
:101650008C30B0F491E0980F90936502809366020D
:1016600090E0FC01EE0FFF1FE80FF91FEF5BFD4F4D
:1016700088EB9BE092838183DF91CF911F91089546
:10168000C0936602F9CFCF93DF93CDB7DEB76197F2
:101690000FB6F894DEBF0FBECDBF789484B58260DC
:1016A00084BD84B5816084BD85B5826085BD85B506
:1016B000816085BD80916E00816080936E00109284
:1016C00081008091810082608093810080918100FF
:1016D0008160809381008091800081608093800090
:1016E0008091B10084608093B1008091B0008160EE
:1016F0008093B00080917A00846080937A0080911A
:101700007A00826080937A0080917A008160809371
:101710007A0080917A00806880937A001092C100EC
:101720000E949C0082E00E94EF0680E00E949507E4
:1017300060E371E081EA92E00E94F208E0918502A4
:10174000F0918602138615861486128611861086FD
:1017500017821682158214821382109283021092CD
:10176000840211E0BE01665F7F4F809185029091F7
:1017700086020E94D305882309F475C067E0CE0174
:101780000A960E946C0499898913ECCF8091830298
:101790008F5F809383028A85883231F008F049C0D8
:1017A000803111F08232F1F6809184028F5F809354
:1017B000840280917C02811128C0809185029091E1
:1017C00086020E942905BE01665F7F4F80918502D7
:1017D000909186020E940A0540E064EB80918502A8
:1017E000909186020E94D604809185029091860293
:1017F0000E948304082F80918502909186020E94A6
:101800002905011102C010937C028A858031E1F024
:10181000BE016F5F7F4FCE010A960E94610588234B
:1018200031F08D818F3391F058F48F31C1F080E029
:101830000EC08B3309F4B8CF823409F093CFB4CF04
:101840008F3579F08F3799F78CE001C08AE090915D
:101850007F02981708F086CF80937F0283CF89E0BC
:10186000F6CF8BE0F4CF62E080916E020E94B80167
:101870002FB7F8948091A0019091A101A091A201AD
:10188000B091A3012FBF805D9740A109B10980935A
:10189000720290937302A0937402B093750287E36F
:1018A00080937B020E949C0061E083E00E94B8016B
:1018B00061E085E00E94B80160E08EE00E94B8011E
:1018C000809166028C3008F051C061E085E00E9492
:1018D000B80180916602282F30E0F901EE0FFF1F5A
:1018E000E20FF31FEF5BFD4F9081907C956090833A
:1018F00010926702109268022CE0622F0E94FF1182
:10190000829FB001112430E020E0AB01420F531F51
:10191000FA01EE0FFF1FE40FF51FEF5BFD4F908103
:1019200096FD16C02F5F3F4F2C30310571F78111A6
:101930000FC01092800082E0809381001092850099
:1019400010928400B19A80916F00826080936F0042
:10195000E09166028E2F90E0FC01EE0FFF1FE80F72
:10196000F91FEF5BFD4F80818064808364E670E047
:1019700080E090E00E94190200E010E061E083E066
:101980000E948A0180918502909186020E94290519
:1019900040E06CEC80918502909186020E94D60412
:1019A00040917C0264E480918502909186020E94BD
:1019B000D60480918002882391F1E0917F0280918A
:1019C0008102882309F461C080917C0281115DC08D
:1019D0008FB7F894C090A001D090A101E090A2012F
:1019E000F090A3018FBF80918502909186020E94A2
:1019F00083048130A1F02FB7F8948091A0019091D9
:101A0000A101A091A201B091A3012FBF8C199D0942
:101A1000AE09BF098E3E9240A105B10520F3E091C9
:101A20008502F09186021386158614861286118629
:101A3000108617821682158214821382BE01665F99
:101A40007F4F80918502909186020E94D30581117B
:101A500044C0412C512CFEEF6F2EF2EC7F2E0E94E1
:101A60004C02882359F080916F028B3038F08D3012
:101A700008F486C08551823008F4B3C0812C912CC3
:101A800030ECA32E3FE7B32E99C0E9508EEE92E0E2
:101A9000E33038F4F0E0EE0FFF1FE050FF4F80819D
:101AA00091816C01990FEE08FF0880917D028823D7
:101AB00029F060E080917E020E948A01C701B60190
:101AC0000E94190280917D02882309F4A8CF61E069
:101AD00080917E020E948A01A2CF67E0CE010A9621
:101AE0000E946C0499898913B4CFBE016F5F7F4F48
:101AF000CE010A960E946105882309F4AACF6A8163
:101B000070E0762F6627770F770F770F298148E0EF
:101B1000249F90011124262B372B8A858031E1F4F4
:101B200068856623C9F070E08F81FB01E81BF1092D
:101B3000CF019695982F8827979587950E940B122D
:101B4000CB018097B90153E0660F771F5A95E1F7F3
:101B500060789C01260F371F2138F4EE3F070CF404
:101B600078CFB901330F880B990B0E94D81020E071
:101B700030E040E05CE30E948D112B013C016FCF0F
:101B800060916A0270E090E080E00E94D8102DEC35
:101B90003CEC4CEC5DE30E948D116B017C0160918B
:101BA000690270E090E080E00E94D8109B01AC01D7
:101BB000C701B6010E94C40F4B015C010E944C0298
:101BC000882341F080916F028C3009F44FC1D8F422
:101BD0008B3091F1C12CD12C90ECE92E9FE7F92E9E
:101BE00055C06091690270916A027627672776274F
:101BF00090E080E00E94D6102DEC3CEC4CEC5DE3D4
:101C00000E948D11D9CF8551823020F730906B0220
:101C1000632D70E0762F662766277F7780916C02B0
:101C2000682B90E080E00E94D6102DEC3CEC4CEC50
:101C30005DE30E948D1136C160916B0270E090E00F
:101C400080E00E94D6106B017C0130906C0237FE60
:101C50000AC0AC019B0160E070E080E89FEB0E944D
:101C6000C30F6B017C01632D6F7070E090E080E02A
:101C70000E94D8102DEC3CEC4CEC5DE30E948D11E1
:101C8000A70196010E94C40F6B017C0181E00E94B4
:101C9000950760E471E081EA92E00E94F20880E03A
:101CA0000E94950760E471E081EA92E00E94F208E8
:101CB00080E00E94950760E371E081EA92E00E9473
:101CC000F20881E00E94950722E0B301A20181EAB7
:101CD00092E00E94040861E571E081EA92E00E94CE
:101CE000F20822E0B501A40181EA92E00E94040812
:101CF00064E571E081EA92E00E94F20866E571E035
:101D000084EA91E00E94F20822E0B301A20184EA91
:101D100091E00E94040864E671E084EA91E00E9488
:101D2000F20822E0B501A40184EA91E00E940408CF
:101D300064E571E084EA91E00E94A90762E771E03E
:101D400084EA91E00E94A90720E030E040EF51E4EE
:101D5000C701B6010E94881161E087FD60E083E061
:101D60000E948A0120E030E048E452E4C501B40159
:101D70000E94881187FD9FC0F12CE12CC7010E94B1
:101D8000C4006FE070E080E090E00E9419022FEF45
:101D9000E21AF20A44EBE416F10481F768EE73E00C
:101DA00080E090E00E941902C7010E94C4006FE029
:101DB00070E080E090E00E94190251E0E51AF1081D
:101DC00099F7EAEAF0E08491ECEDF0E0F490E8ECC9
:101DD000F0E0E490EE20C1F181110E946101EE2D4E
:101DE000F0E0EE0FFF1FE055FF4FA591B4918C91ED
:101DF000F82251F180E00E94950765E771E081EAE1
:101E000092E00E94F20881E00E94950766E871E086
:101E100081EA92E00E94F20860ED77E080E090E0D5
:101E20000E94190280E00E94950760E471E081EA57
:101E300092E00E94F20881E00E94950760E471E060
:101E400081EA92E00E94F20864EF71E080E090E0A5
:101E50000E9419020115110509F490CD0E94C503D5
:101E6000882309F48BCD0E94000088CD30906B024E
:101E7000632D70E090E080E00E94D6106B017C0141
:101E800060916C026F7070E090E080E00E94D8106A
:101E90002DEC3CEC4CEC5DE30E948D11A70196010A
:101EA0000E94C40F6B017C0137FEF0CEF7FAF0946C
:101EB000F7F8F094EBCE90E080E00E94C40081CF70
:101EC000052E97FB1EF400940E94770F57FD07D054
:101ED0000E94920F07FC03D04EF40C94770F50959C
:101EE0004095309521953F4F4F4F5F4F0895909506
:101EF0008095709561957F4F8F4F9F4F08950E94F9
:101F0000B40FA59F900DB49F900DA49F800D911DBF
:101F100011240895B7FF0C947F0F0E947F0F821B3E
:101F2000930B0895A1E21A2EAA1BBB1BFD010DC045
:101F3000AA1FBB1FEE1FFF1FA217B307E407F50779
:101F400020F0A21BB30BE40BF50B661F771F881F55
:101F5000991F1A9469F760957095809590959B01EB
:101F6000AC01BD01CF010895A29FB001B39FC00194
:101F7000A39F700D811D1124911DB29F700D811DB5
:101F80001124911D08955058BB27AA270E94DB0FEA
:101F90000C944E110E94401138F00E94471120F01D
:101FA00039F49F3F19F426F40C943D110EF4E0959A
:101FB000E7FB0C943711E92F0E945F1158F3BA1711
:101FC000620773078407950720F079F4A6F50C944F
:101FD00081110EF4E0950B2EBA2FA02D0B01B90143
:101FE00090010C01CA01A0011124FF27591B99F08F
:101FF000593F50F4503E68F11A16F040A22F232F9B
:10200000342F4427585FF3CF469537952795A795EA
:10201000F0405395C9F77EF41F16BA0B620B730B91
:10202000840BBAF09150A1F0FF0FBB1F661F771F02
:10203000881FC2F70EC0BA0F621F731F841F48F4B7
:10204000879577956795B795F7959E3F08F0B0CF40
:102050009395880F08F09927EE0F97958795089527
:102060000E94131108F481E008950E9449100C9415
:102070004E110E94471158F00E94401140F029F47F
:102080005F3F29F00C94371151110C9482110C947C
:102090003D110E945F1168F39923B1F3552391F329
:1020A000951B550BBB27AA2762177307840738F0C7
:1020B0009F5F5F4F220F331F441FAA1FA9F335D024
:1020C0000E2E3AF0E0E832D091505040E695001CD8
:1020D000CAF72BD0FE2F29D0660F771F881FBB1F92
:1020E000261737074807AB07B0E809F0BB0B802D70
:1020F000BF01FF2793585F4F3AF09E3F510578F09C
:102100000C9437110C9482115F3FE4F3983ED4F3A2
:10211000869577956795B795F7959F5FC9F7880F6F
:10212000911D9695879597F90895E1E0660F771FC1
:10213000881FBB1F621773078407BA0720F0621B52
:10214000730B840BBA0BEE1F88F7E09508950E947D
:10215000671188F09F5798F0B92F9927B751B0F0C1
:10216000E1F0660F771F881F991F1AF0BA95C9F71B
:1021700014C0B13091F00E948111B1E008950C9427
:102180008111672F782F8827B85F39F0B93FCCF3DA
:10219000869577956795B395D9F73EF49095809598
:1021A000709561957F4F8F4F9F4F0895E89409C0B8
:1021B00097FB3EF490958095709561957F4F8F4F7A
:1021C0009F4F9923A9F0F92F96E9BB279395F69590
:1021D000879577956795B795F111F8CFFAF4BB0F0E
:1021E00011F460FF1BC06F5F7F4F8F4F9F4F16C072
:1021F000882311F096E911C0772321F09EE8872FFC
:10220000762F05C0662371F096E8862F70E060E0B7
:102210002AF09A95660F771F881FDAF7880F969530
:10222000879597F90895990F0008550FAA0BE0E8D4
:10223000FEEF16161706E807F907C0F01216130688
:10224000E407F50798F0621B730B840B950B39F4C8
:102250000A2661F0232B242B252B21F408950A262E
:1022600009F4A140A6958FEF811D811D089597F96E
:102270009F6780E870E060E008959FEF80EC08952C
:1022800000240A9416161706180609060895002455
:102290000A9412161306140605060895092E0394CF
:1022A000000C11F4882352F0BB0F40F4BF2B11F443
:1022B00060FF04C06F5F7F4F8F4F9F4F089557FDA2
:1022C0009058440F551F59F05F3F71F04795880FA4
:1022D00097FB991F61F09F3F79F08795089512163B
:1022E00013061406551FF2CF4695F1DF08C01616E7
:1022F00017061806991FF1CF869571056105089498
:102300000895E894BB2766277727CB0197F90895AE
:102310000E94131108F48FEF08950E94A0110C94ED
:102320004E110E94401138F00E94471120F0952371
:1023300011F00C9437110C943D1111240C9482115E
:102340000E945F1170F3959FC1F3950F50E0551FE8
:10235000629FF001729FBB27F00DB11D639FAA27FA
:10236000F00DB11DAA1F649F6627B00DA11D661F49
:10237000829F2227B00DA11D621F739FB00DA11D6A
:10238000621F839FA00D611D221F749F3327A00D24
:10239000611D231F849F600D211D822F762F6A2FC0
:1023A00011249F5750409AF0F1F088234AF0EE0F25
:1023B000FF1FBB1F661F771F881F91505040A9F752
:1023C0009E3F510580F00C9437110C9482115F3FB1
:1023D000E4F3983ED4F3869577956795B795F7958E
:1023E000E7959F5FC1F7FE2B880F911D9695879506
:1023F00097F908950E941311880B990B0895991B62
:1024000079E004C0991F961708F0961B881F7A95EB
:10241000C9F78095089597FB072E16F4009407D00E
:1024200077FD09D00E941F1207FC05D03EF490955D
:1024300081959F4F0895709561957F4F0895AA1BD0
:10244000BB1B51E107C0AA1FBB1FA617B70710F09F
:10245000A61BB70B881F991F5A95A9F780959095D1
:10246000BC01CD010895EE0FFF1F0590F491E02D02
:102470000994F894FFCF5E00BC00770100000000D3
:10248000FB035B0388034804B9039703AB03000015
:102490000000A3075B03690468046E616E00696E47
:1024A00066006F76660054656D7020262048756D55
:1024B00069646974790020202020202020202020B9
:1024C00020202020202000432000250054656D702E
:1024D000657261747572653A2000432C2048756DF1
:1024E00069646974793A20000D0A004D6F74696F50
:1024F0006E20646574656374656421005765697254
:102500006420696E7365637420616C657274210068
:107E0000112484B714BE81FFF0D085E080938100F7
:107E100082E08093C00088E18093C10086E0809377
:107E2000C20080E18093C4008EE0C9D0259A86E02C
:107E300020E33CEF91E0309385002093840096BBD3
:107E4000B09BFECF1D9AA8958150A9F7CC24DD24C4
:107E500088248394B5E0AB2EA1E19A2EF3E0BF2EE7
:107E6000A2D0813461F49FD0082FAFD0023811F036
:107E7000013811F484E001C083E08DD089C08234E0
:107E800011F484E103C0853419F485E0A6D080C0E4
:107E9000853579F488D0E82EFF2485D0082F10E0AE
:107EA000102F00270E291F29000F111F8ED06801E7
:107EB0006FC0863521F484E090D080E0DECF843638
:107EC00009F040C070D06FD0082F6DD080E0C81688
:107ED00080E7D80618F4F601B7BEE895C0E0D1E017
:107EE00062D089930C17E1F7F0E0CF16F0E7DF06D8
:107EF00018F0F601B7BEE89568D007B600FCFDCFD4
:107F0000A601A0E0B1E02C9130E011968C91119780
:107F100090E0982F8827822B932B1296FA010C0160
:107F200087BEE89511244E5F5F4FF1E0A038BF0790
:107F300051F7F601A7BEE89507B600FCFDCF97BE46
:107F4000E89526C08437B1F42ED02DD0F82E2BD052
:107F50003CD0F601EF2C8F010F5F1F4F84911BD097
:107F6000EA94F801C1F70894C11CD11CFA94CF0C13
:107F7000D11C0EC0853739F428D08EE10CD085E9AC
:107F80000AD08FE07ACF813511F488E018D01DD067
:107F900080E101D065CF982F8091C00085FFFCCF94
:107FA0009093C60008958091C00087FFFCCF809118
:107FB000C00084FD01C0A8958091C6000895E0E648
:107FC000F0E098E1908380830895EDDF803219F02E
:107FD00088E0F5DFFFCF84E1DECF1F93182FE3DFCA
:107FE0001150E9F7F2DF1F91089580E0E8DFEE27F6
:047FF000FF270994CA
:027FFE00040479
:00000001FF
